:100000000C9463000C948B000C948B000C948B006C
:100010000C948B000C948B000C948B000C943D047E
:100020000C948B000C948B000C948B000C948B0024
:100030000C948B000C948B000C948B000C948B0014
:100040000C941E0F0C948B000C9425120C945712D8
:100050000C948B000C948B000C948B000C948B00F4
:100060000C948B000C948B0000000008000201002F
:100070000003040700000000000000000102040863
:100080001020408001020408102001020408102002
:10009000040404040404040402020202020203032E
:1000A00003030303000000002300260029000000D2
:1000B0000000250028002B0000000000240027007D
:1000C0002A006703871211241FBECFEFD8E0DEBFDE
:1000D000CDBF12E0A0E0B1E0E6E3FEE202C0059091
:1000E0000D92A835B107D9F723E0A8E5B2E001C029
:1000F0001D92A93FB207E1F710E0C6ECD0E004C0C2
:100100002297FE010E940617C23CD107C9F70E9440
:100110004B140C9419170C94000026E040E855E2AB
:1001200060E070E08CE593E00E94C31161E081E043
:100130000E94481088E692E00E94FC0461E080E0A2
:100140000E94481061E08FE00C944810AF92BF927B
:10015000CF92DF92EF92FF920F931F9380E10E9464
:10016000A30FBC01882777FD8095982F0E945E150C
:100170002AE038E240EA5BE30E940E1620E030E01D
:1001800048EC52E40E940E160E942B1570937402E4
:100190006093730220910A0130910B01621773077B
:1001A00044F4109272021092710260E081E00E94A9
:1001B0008110609173027091740220910A01309154
:1001C0000B01621773070CF459C0E0900801F0901E
:1001D0000901E616F7060CF451C00027F7FC00955C
:1001E000102F442737FD4095542F882777FD8095A1
:1001F000982F1F921F921F92EFEFEF93E0E2AE2E27
:10020000B12CC12CD12C0E94031470937202609304
:100210007102E0900801F09009010027F7FC0095B9
:10022000102F20910A0130910B01442737FD409592
:10023000542F6091730270917402882777FD809526
:10024000982F1F921F921F92E4E6EF93A12CB12CDE
:1002500065010E9403147093700260936F026091B5
:1002600071027091720281E00E94C00F8DB79EB73B
:1002700008960FB6F8949EBF0FBE8DBF20917302F3
:1002800030917402809108019091090182179307BF
:1002900054F461E081E00E9481106DE071E08CE532
:1002A00093E00E94151369E271E08CE593E00E94EF
:1002B000081360917302709174024AE050E08CE57B
:1002C00093E00E94C01365E371E08CE593E00E9427
:1002D00008136AE371E08CE593E00E9408136091D3
:1002E0006F02709170024AE050E08CE593E00E944A
:1002F000C01365E471E08CE593E00E9408138CE57F
:1003000093E01F910F91FF90EF90DF90CF90BF90FF
:10031000AF900C941113AF92BF92CF92DF92EF92F5
:10032000FF920F931F93CF93DF93EC01672B09F09C
:10033000F9C080916D0290916E0297FF04C01092F7
:100340006E0210926D0280916D0290916E02C297C2
:1003500034F082E390E090936E0280936D0280917E
:100360006D0290916E02C0362FE9D20711F4059606
:1003700005C0C03E2FE1D20729F4059790936E0285
:1003800080936D0280916D0290916E02181619068D
:1003900074F010926C0210926B0260E081E00E9497
:1003A000811067E471E08CE593E00E94081360918E
:1003B0006D0270916E022091060130910701621763
:1003C00073070CF46FC0E0900401F0900501E6168D
:1003D000F7060CF467C00027F7FC0095102F4427A0
:1003E00037FD4095542F882777FD8095982F1F92D1
:1003F0001F921F92EFEFEF93F0E2AF2EB12CC12CC2
:10040000D12C0E94031470936C0260936B02E090F5
:100410000401F09005010027F7FC0095102F2091B2
:10042000060130910701442737FD4095542F609114
:100430006D0270916E02882777FD8095982F1F922C
:100440001F921F92E2E3EF93A12CB12C65010E9451
:10045000031470936A026093690260916B02709159
:100460006C0281E00E94C00F61E571E08CE593E0D1
:100470000E9408136091690270916A024AE050E09C
:100480008CE593E00E94C01365E471E08CE593E095
:100490000E9415138DB79EB708960FB6F8949EBFAD
:1004A0000FBE8DBF20916D0230916E0280910401CC
:1004B000909105018217930754F461E081E00E9456
:1004C00081106DE571E08CE593E00E94081363E70D
:1004D00071E08CE593E00E94081360916D027091C9
:1004E0006E024AE050E08CE593E00E94C8136BE78F
:1004F00071E08CE593E00E9408134AE050E0BE01F1
:100500008CE593E00E94C81388E692E0DF91CF91DA
:100510001F910F91FF90EF90DF90CF90BF90AF9021
:100520000C941305DF91CF911F910F91FF90EF90E5
:10053000DF90CF90BF90AF900C94A600CF92DF9247
:10054000EF92FF92CF93DF9368E572E088E692E046
:100550000E94C905892B09F4A8C0C0905C02D09004
:100560005D02E0905E02F0905F022FE9C21620E685
:10057000D20691F12FE8C21620E7D20639F020ED1D
:10058000C2162FE2D20609F072C04CC080917702E9
:1005900090917802019779F460E080E00E948110E8
:1005A00069E971E08CE593E00E94081310927802EB
:1005B000109277025CC061E080E00E94811064EBE1
:1005C00071E08CE593E00E94081381E090E0909345
:1005D0007802809377024BC08091790290917A02E1
:1005E000019779F460E08FE00E9481106EEC71E079
:1005F0008CE593E00E94081310927A02109279021F
:1006000036C061E08FE00E94811069EE71E08CE5F8
:1006100093E00E94081381E090E090937A02809327
:10062000790225C080917B0290917C02019779F438
:100630001092800210927F0263E072E08CE593E0FA
:100640000E94151310927C0210927B0210C0C1E030
:10065000D0E0D0938002C0937F0261E172E08CE52C
:1006600093E00E941513D0937C02C0937B026EE14D
:1006700072E08CE593E00E9408134AE050E0B60176
:100680008CE593E00E94ED1388E692E00E9413054A
:1006900060917F0270918002C601DF91CF91FF903F
:1006A000EF90DF90CF900C948B01DF91CF91FF9072
:1006B000EF90DF90CF9008950E949E0280917F027C
:1006C00090918002019711F40C94A600089561E1C5
:1006D00070E088E692E00C94F704CF92DF92EF92FC
:1006E000FF92CF93DF93EC01882777FD8095982FB9
:1006F0000E945E156B017C0120E030E040E45FE386
:100700000E940E1620E030E048E452E40E94C31438
:100710000E942B15C617D707D4F020E030E040EA3E
:100720005FE3C701B6010E940E1620E030E048E406
:1007300052E40E94C31420E030E040E85FE30E94EE
:100740005B140E942B1521E06C177D070CF420E050
:10075000822F90E0DF91CF91FF90EF90DF90CF90CC
:100760000895CF92DF92EF92FF92CF93DF93EC0147
:100770006C597F4F882777FD8095982F0E945E15D2
:100780006B017C0120E030E040E45FE30E940E1644
:1007900020E030E048E452E40E94C3140E942B158C
:1007A000C617D707D4F020E030E040EA5FE3C70186
:1007B000B6010E940E1620E030E048E452E40E94A8
:1007C000C31420E030E040E85FE30E945B140E9425
:1007D0002B1521E06C177D070CF420E0822F90E0B0
:1007E000DF91CF91FF90EF90DF90CF900895CF925F
:1007F000DF92EF92FF92CF93DF93EC016456710981
:10080000882777FD8095982F0E945E156B017C01EB
:1008100020E030E040E45FE30E940E1620E030E08C
:1008200048E452E40E94C3140E942B15C617D70750
:10083000D4F020E030E040EA5FE3C701B6010E9457
:100840000E1620E030E048E452E40E94C31420E099
:1008500030E040E85FE30E945B140E942B1521E02A
:100860006C177D070CF420E0822F90E0DF91CF9190
:10087000FF90EF90DF90CF9008951F920F920FB6E8
:100880000F9211242F933F934F935F936F937F9316
:100890008F939F93AF93BF93EF93FF9380918202C7
:1008A0000E94B71020918602309187022F5F3F4F40
:1008B000309387022093860290918502953618F036
:1008C00096E090938102909181029430C9F128F4CE
:1008D000923069F09330D1F05EC0953009F451C088
:1008E000963009F058C091E09093520351C08111A5
:1008F00052C020918602309187022436310508F4D7
:1009000042C010925203109285021CC0813009F03F
:1009100042C0E091850291E09E0F90938502F0E045
:100920002091860230918702EE0FFF1FEF57FD4F97
:1009300030872783109287021092860294E029C0A4
:10094000811117C0E091850291E09E0F909385027E
:10095000F0E02091860230918702EE0FFF1FEF57E3
:10096000FD4F30872783109287021092860293E012
:1009700010C020918602309187022536310558F04B
:1009800007C0811108C0109287021092860203C02E
:1009900095E090938102909184029923B9F081119E
:1009A0000AC080918302882321F08091830261E054
:1009B00009C02D9A0BC080918302882331F0809169
:1009C000830260E00E94811001C02D98FF91EF9199
:1009D000BF91AF919F918F917F916F915F914F9157
:1009E0003F912F910F900FBE0F901F90189560931D
:1009F0008202109284020895F89482E08093B000FD
:100A00008093B10094E69093B3001092B20080936B
:100A10007000789480938102109285028091820206
:100A200060E00C94481082E080938102109285026D
:100A300008958F929F92AF92BF92CF92DF92EF92E2
:100A4000FF927B01BA0180E090E00E945C154B01AF
:100A50005C01B70180E090E00E945C156B017C01B5
:100A60002DEC3CEC4CE45FE30E940E169B01AC01C4
:100A7000C501B4010E94BF1487FD17C02DEC3CECEA
:100A80004CE45FE3C501B4010E940E169B01AC016A
:100A9000C701B6010E94BF14992787FD909588274A
:100AA000990F881F9927019602C080E090E0FF907F
:100AB000EF90DF90CF90BF90AF909F908F90089570
:100AC0008F929F92AF92BF92CF92DF92EF92FF925E
:100AD0000F931F93CF93DF936C01EB01EC84FD84A4
:100AE00086E0E816F1040CF444C0EE0CFF1C06E0AE
:100AF00010E045EC842E4DE9942E4CE1A42E41E803
:100B0000B42E8A859B85FC01E00FF11F4081518145
:100B1000F8013497E80FF91F60817181C6010E94C6
:100B20001905FC01A501940163E971E080E091E001
:100B30000E9471164F01AA2497FCA094BA2C862615
:100B40009726A826B9260E5F1F4F0E151F05C9F65A
:100B50008C829D82AE82BF8280E290E099878887F6
:100B60008FEF9FEF9983888361E070E080E090E0F1
:100B700003C060E070E0CB01DF91CF911F910F9136
:100B8000FF90EF90DF90CF90BF90AF909F908F90AD
:100B900008950F931F93CF93DF938C01EB0188E8A7
:100BA00092E09B878A878091850290E09D878C8761
:100BB0008091520390E09F878E87809181028530DB
:100BC00009F05EC0C8010E942809882319F081E05D
:100BD00090E058C0BE01C8010E94E10D8111F7CF1D
:100BE000BE01C8010E943D0D8111F1CFBE01C801B7
:100BF0000E9499088111EBCFBE01C8010E94FF0A33
:100C00008111E5CFBE01C8010E94A60B8111DFCF83
:100C1000BE01C8010E94C7098111D9CFBE01C80118
:100C20000E940C088111D3CFBE01C8010E94530756
:100C30008111CDCFBE01C8010E949E0C8111C7CF8A
:100C4000BE01C8010E947C0E8111C1CFBE01C80146
:100C50000E9447068111BBCFBE01C8010E94D80681
:100C60008111B5CFBE01C8010E946005672B682BBA
:100C7000692B09F0ACCF82E080938102109285024B
:100C800080E090E0DF91CF911F910F910895AF9296
:100C9000BF92CF92DF92EF92FF920F931F93CF9369
:100CA000DF93EB0180918502883510F480E075C0F8
:100CB000EA85FB858281938160E672E20E94B1033E
:100CC000892BA1F3EA85FB858481958164E971E133
:100CD0000E94F703892B51F3BEE1CB2ED12C1DE1ED
:100CE000E12EF12C00E010E08091850290E0049765
:100CF000E816F906C4F5EA85FB85C701880F991F38
:100D0000E80FF91F8081918164EF71E00E94B103C7
:100D1000892B61F25601AA0CBB1CEA85FB85EA0D02
:100D2000FB1D8081918168E572E00E94F703892BA9
:100D300021F0000F111F01600EC0EA85FB85EA0D4E
:100D4000FB1D8081918164EA76E00E94F703892B84
:100D500049F0000F111F82E0E80EF11C82E0C80E7E
:100D6000D11CC2CF760181E0E81AF108F594E7942E
:100D7000F986E8868AE2E816F1040CF497CFC801F8
:100D8000AA2797FDA095BA2F8C839D83AE83BF833E
:100D900089E090E09983888381E0DF91CF911F9172
:100DA0000F91FF90EF90DF90CF90BF90AF9008959C
:100DB000AF92BF92CF92DF92EF92FF920F931F9369
:100DC000CF93DF93EB0180918502803211F080E0B8
:100DD0005FC0EA85FB85828193816CE271E00E94AD
:100DE000B103892BA1F3EA85FB85848195816EEEA1
:100DF00072E00E94F703892B51F306E010E0C12C4A
:100E0000D12C7601EA85FB85E00FF11F808191816D
:100E10006CE271E00E94B103892BC9F2580182E0B3
:100E2000A80EB11CEA85FB85EA0DFB1D808191812E
:100E300068E077E00E94F703892B39F0CC0CDD1CC9
:100E4000EE1CFF1C6894C0F811C0EA85FB85EA0D12
:100E5000FB1D808191816EEE72E00E94F703892B69
:100E600009F4B5CFCC0CDD1CEE1CFF1C0C5F1F4F32
:100E70000E33110539F68EE090E099878887CC8291
:100E8000DD82EE82FF828FE090E09983888381E0AB
:100E9000DF91CF911F910F91FF90EF90DF90CF9056
:100EA000BF90AF900895AF92BF92CF92DF92EF9232
:100EB000FF920F931F93CF93DF93EB0180918502F5
:100EC000823261F5EA85FB858281938168E572E073
:100ED0000E94B103892B11F18091850290E081502D
:100EE0009048880F991FEA85FB85E80FF91F8081DC
:100EF000918168E572E00E94B103892B79F019862F
:100F000018868FEF9FEFDC018C839D83AE83BF83B8
:100F100086E090E09983888381E073C0EA85FB8551
:100F20008281938160E47FE10E94B103892B21F0EB
:100F300080918502813210F480E063C0EA85FB85F0
:100F40008481958160EA7FE00E94F703892BA1F3F9
:100F500058E0A52EB12C03E010E0C12CD12C760175
:100F6000EA85FB85C801880F991FE80FF91F80816A
:100F7000918168E572E00E94B103892BE9F2EA856C
:100F8000FB85EA0DFB1D8081918160E476E00E9483
:100F9000F703892B39F0CC0CDD1CEE1CFF1C689488
:100FA000C0F811C0EA85FB85EA0DFB1D80819181A7
:100FB00066E272E00E94F703892B09F4BDCFCC0CE6
:100FC000DD1CEE1CFF1C0E5F1F4F84E0A80EB11C41
:100FD0000332110529F6EA85FB85EA5BFF4F808124
:100FE000918168E572E00E94B103892B09F4A4CFD6
:100FF00080E190E099878887CC82DD82EE82FF8253
:1010000087CFDF91CF911F910F91FF90EF90DF90ED
:10101000CF90BF90AF900895AF92BF92CF92DF92E2
:10102000EF92FF920F931F93CF93DF93EB01809189
:101030008502893310F480E071C0EA85FB858281E6
:10104000938160E47FE10E94B103892BA1F3EA85DB
:10105000FB858481958160EA7FE00E94F703892BFC
:1010600051F338E0A32EB12C03E010E0C12CD12CB9
:101070007601EA85FB85C801880F991FE80FF91FE3
:101080008081918168E572E00E94B103892B99F219
:10109000EA85FB85EA0DFB1D8081918160E476E0A5
:1010A0000E94F703892B39F0CC0CDD1CEE1CFF1CD1
:1010B0006894C0F811C0EA85FB85EA0DFB1D8081AC
:1010C000918166E272E00E94F703892B09F4B3CFA5
:1010D000CC0CDD1CEE1CFF1C0E5F1F4F84E0A80E25
:1010E000B11C0B33110529F6EA85FB85EA58FF4F41
:1010F0008081918168E572E00E94B103892B09F437
:101100009ACF8CE190E099878887CC82DD82EE824D
:10111000FF828AE090E09983888381E0DF91CF911C
:101120001F910F91FF90EF90DF90CF90BF90AF9005
:1011300008956F927F928F929F92AF92BF92CF92BB
:10114000DF92EF92FF920F931F93CF93DF93EB0108
:1011500080918502823208F461C0EA85FB85828134
:1011600093816EE571E00E94B103892B09F456C0AA
:1011700063E0A62EB12C02E010E0C12CD12C760148
:1011800035018091850290E0A816B906E4F5480182
:10119000880C991CEA85FB85E80DF91D80819181F9
:1011A0006EE977E00E94B103892B39F0CC0CDD1C8D
:1011B000EE1CFF1C6894C0F810C0EA85FB85E80DA2
:1011C000F91D808191816EEE72E00E94B103892B3E
:1011D00029F1CC0CDD1CEE1CFF1CC501880F991FEA
:1011E000EA85FB85E80FF91F808191816EE571E04A
:1011F0000E94F70322E0A20EB11C892B19F00E5FAA
:101200001F4FBECF8301015011091595079519870E
:1012100008870031110524F41986188680E009C07A
:10122000CC82DD82EE82FF828CE090E0998388831D
:1012300081E0DF91CF911F910F91FF90EF90DF90B0
:10124000CF90BF90AF909F908F907F906F900895B8
:10125000AF92BF92CF92DF92EF92FF920F931F93C4
:10126000CF93DF93EB01EA85FB858281938168E26E
:1012700073E20E94B103892B11F480E07DC080915C
:101280008502843019F5EA85FB85848195816AECB5
:1012900078E00E94F703892BC9F0EA85FB858681F7
:1012A000978160E372E00E94B103892B79F019867F
:1012B00018868FEF9FEFDC018C839D83AE83BF8305
:1012C00083E090E09983888381E056C08091850215
:1012D000843498F2EA85FB858481958164E971E123
:1012E0000E94F703892B49F206E010E0C12CD12CB3
:1012F0007601EA85FB85E00FF11F8081918160E333
:1013000072E00E94B103892B09F4B7CF580182E043
:10131000A80EB11CEA85FB85EA0DFB1D8081918139
:101320006AE976E00E94F703892B39F0CC0CDD1CCA
:10133000EE1CFF1C6894C0F811C0EA85FB85EA0D1D
:10134000FB1D8081918160E372E00E94F703892B8D
:1013500009F493CFCC0CDD1CEE1CFF1C0C5F1F4F5F
:101360000638110531F680E290E099878887CC82B3
:10137000DD82EE82FF82A4CFDF91CF911F910F918A
:10138000FF90EF90DF90CF90BF90AF9008958F9235
:101390009F92AF92BF92CF92DF92EF92FF920F9304
:1013A0001F93CF93DF9300D000D0CDB7DEB74B01B2
:1013B000DB011A96ED91FC911B97828193816EEA75
:1013C0007DE00E94B103892B11F480E093C0D40129
:1013D0001A96ED91FC911B978481958166ED76E0DC
:1013E0000E94B103892B89F3E6E0EE2EF12C20E078
:1013F00030E040E050E0A12CB12CC12CD12CD40124
:101400001A96ED91FC911B97EE0DFF1D8081918145
:1014100066EF71E029833A834B835C830E94B103BA
:10142000892B99F287010E5F1F4FD4011A96ED9117
:10143000FC911B97E00FF11F808191816CED74E0AE
:101440000E94F70329813A814B815C81892B39F015
:10145000B501C60101E00E94CD1621601DC0D40176
:101460001A96ED91FC911B97E00FF11F80819181FD
:1014700060E971E029833A834B835C830E94F70320
:1014800029813A814B815C81892B09F49ECFB5017A
:10149000C60101E00E94CD165B016C01B4E0EB0EC9
:1014A000F11CE6ECEE16F10409F0A9CFD401149674
:1014B0002C93149715963C93159716964C93169764
:1014C00017965C931797B501C60100E20E94E816D3
:1014D00012962C93129713963C93139785E090E005
:1014E00011969C938E9380E390E019969C938E9333
:1014F000189781E00F900F900F900F90DF91CF9190
:101500001F910F91FF90EF90DF90CF90BF90AF9021
:101510009F908F9008958F929F92AF92BF92CF929B
:10152000DF92EF92FF920F931F93CF93DF937A0195
:101530006901DA01CD91DC91FB0184859585C8179D
:10154000D9070CF04AC0CE01880F991F0284F38599
:10155000E02DE80FF91FA080B180C170DD27F1E018
:10156000CF27209719F484E690E002C08CE99FEF22
:101570004801880E991EB401C5010E946D03892B94
:1015800099F4800E911EB401C5010E946D03892B50
:1015900071F4B401600F711FC5010E946D03892BA6
:1015A000F9F023E030E005C021E030E002C022E0A5
:1015B00030E0D6018D919C91119701968217930787
:1015C00044F0F60111821082D7018D919C91119700
:1015D00001968D939C93CE0105C081E090E002C0FE
:1015E0008FEF9FEFDF91CF911F910F91FF90EF90C1
:1015F000DF90CF90BF90AF909F908F9008954F92C3
:101600005F926F927F928F929F92AF92BF92CF9292
:10161000DF92EF92FF920F931F93CF93DF9300D04F
:1016200000D0CDB7DEB76C017B011C821B8281E04C
:1016300090E09A838983809185028D3010F480E058
:1016400070C009E713E09E012D5F3F4FAE014F5F71
:101650005F4FC6010E948B0A892B89F79E012D5F7F
:101660003F4FAE014F5F5F4FB701C6010E948B0A2B
:10167000019729F79E012D5F3F4FAE014F5F5F4FEE
:10168000B701C6010E948B0A892BC9F6412C512C47
:101690003201A12CB12C8091850290E029813A8100
:1016A000281739079CF509E713E09E012D5F3F4F8E
:1016B000AE014F5F5F4FB701C6010E948B0A4C011C
:1016C0009E012D5F3F4FAE014F5F5F4FB701C601D7
:1016D0000E948B0A21E08216910451F4892B09F0B3
:1016E000AECF440C551C661C771C689440F80AC0A9
:1016F000892809F0A4CF019709F0A1CF440C551C0B
:10170000661C771C8FEFA81AB80AC5CFF701B186FF
:10171000A086448255826682778281E090E0918340
:1017200080830F900F900F900F90DF91CF911F91BA
:101730000F91FF90EF90DF90CF90BF90AF909F9070
:101740008F907F906F905F904F9008952F923F926F
:101750004F925F926F927F928F929F92AF92BF92C1
:10176000CF92DF92EF92FF920F931F93CF93DF936D
:1017700000D000D0CDB7DEB76C017B011C821B828C
:10178000DB011C968D919C911D971816190614F07B
:1017900080E0BDC0DB011A96ED91FC911B9782E0C1
:1017A00090E09A838983828193816AE67AE00E943D
:1017B000B103892B69F3D7011A96ED91FC911B9720
:1017C00089819A819C012F5F3F4F3A832983880F3B
:1017D000991FE80FF91F8081918169E773E00E94EA
:1017E000F703892BA9F20CEB11E09E012D5F3F4F0F
:1017F000AE014F5F5F4FB701C6010E948B0A892B74
:1018000039F69E012D5F3F4FAE014F5F5F4FB7012D
:10181000C6010E948B0A019709F0BACF212C312C06
:101820002101A12CB12C29813A81F701848595856C
:10183000281739070CF060C00CEB11E09E012D5FFA
:101840003F4FAE014F5F5F4FB701C6010E948B0A49
:101850003C01B3E0AB16B10491F00CEB11E09E013A
:101860002D5F3F4FAE014F5F5F4FB701C6010E9432
:101870008B0A4C01E3E0AE16B10409F510C00CEB85
:1018800011E09E012D5F3F4FAE014F5F5F4FB701EB
:10189000C6010E948B0A68167906F9F279CF0CEB23
:1018A00011E09E012D5F3F4FAE014F5F5F4FB701CB
:1018B000C6010E948B0A8816990609F069CF611447
:1018C000710459F48A94892809F062CF220C331CE0
:1018D000441C551C689420F80BC06A94672809F0D2
:1018E00057CF892809F054CF220C331C441C551CB7
:1018F000AFEFAA1ABA0A97CFB186A08624823582A2
:101900004682578282E090E09183808381E00F904D
:101910000F900F900F90DF91CF911F910F91FF903B
:10192000EF90DF90CF90BF90AF909F908F907F907F
:101930006F905F904F903F902F900895AF92BF921D
:10194000CF92DF92EF92FF920F931F93CF93DF938B
:10195000EB01EA85FB858281938168E873E10E944F
:10196000B103892B11F480E07DC080918502843021
:1019700019F5EA85FB85848195816AEC78E00E94FF
:10198000F703892BC9F0EA85FB858681978160E39F
:1019900072E00E94B103892B79F0198618868FEFC7
:1019A0009FEFDC018C839D83AE83BF8387E090E053
:1019B0009983888381E056C080918502843498F2AF
:1019C000EA85FB858481958168E873E10E94F703CD
:1019D000892B49F206E010E0C12CD12C7601EA8572
:1019E000FB85E00FF11F8081918160E372E00E942E
:1019F000B103892B09F4B7CF580182E0A80EB11CBE
:101A0000EA85FB85EA0DFB1D8081918160E476E02B
:101A10000E94F703892B39F0CC0CDD1CEE1CFF1C57
:101A20006894C0F811C0EA85FB85EA0DFB1D808132
:101A3000918160E372E00E94F703892B09F493CF50
:101A4000CC0CDD1CEE1CFF1C0C5F1F4F0638110573
:101A500031F680E290E099878887CC82DD82EE8241
:101A6000FF82A4CFDF91CF911F910F91FF90EF9054
:101A7000DF90CF90BF90AF9008958F929F92AF92DA
:101A8000BF92CF92DF92EF92FF920F931F93CF936B
:101A9000DF93EB01809185028A3108F47AC0EA85F0
:101AA000FB85808191818032934050F4198618869D
:101AB0008FEF9FEFDC018C839D83AE83BF836FC06C
:101AC000828193816CEA7DE00E94B103892B09F445
:101AD00060C0EA85FB85848195816CEA7DE00E9487
:101AE000B103892B09F455C054E0A52EB12C03E0B5
:101AF00010E0C12CD12C76018091850290E0A816CF
:101B0000B906E4F5EA85FB85C801880F991FE80F3F
:101B1000F91F8081918166EB73E00E94F703892BA6
:101B200061F14501880C991CEA85FB85E80DF91DDA
:101B30008081918160E679E00E94B103892B39F0C0
:101B4000CC0CDD1CEE1CFF1C6894C0F810C0EA85AC
:101B5000FB85E80DF91D808191816CEB72E00E949C
:101B6000B103892BB1F0CC0CDD1CEE1CFF1C0E5F09
:101B70001F4F82E0A80EB11CBFCF85010150110993
:101B800015950795198708870C30110524F41986D7
:101B9000188680E009C0CC82DD82EE82FF828BE075
:101BA00090E09983888381E0DF91CF911F910F911D
:101BB000FF90EF90DF90CF90BF90AF909F908F906D
:101BC00008958F929F92AF92BF92CF92DF92EF9241
:101BD000FF920F931F93CF93DF93EB0180918502C8
:101BE0008A3108F471C0EA85FB8580819181843F48
:101BF000914060F4198618868FEF9FEFDC018C838B
:101C00009D83AE83BF838BE090E066C08281938129
:101C100060E679E00E94B103892B09F455C073E0B6
:101C2000A72EB12C02E010E0C12CD12C76018091BE
:101C3000850290E0A816B906E4F5EA85FB85C8019F
:101C4000880F991FE80FF91F8081918168E572E084
:101C50000E94F703892B61F14501880C991CEA85E4
:101C6000FB85E80DF91D8081918160EB74E00E9495
:101C7000B103892B39F0CC0CDD1CEE1CFF1C6894E1
:101C8000C0F810C0EA85FB85E80DF91D80819181BF
:101C900068E572E00E94B103892BB1F0CC0CDD1C29
:101CA000EE1CFF1C0E5F1F4F82E0A80EB11CBFCFC1
:101CB00085010150110915950795198708870C3082
:101CC000110524F41986188680E009C0CC82DD82D3
:101CD000EE82FF8284E090E09983888381E0DF9147
:101CE000CF911F910F91FF90EF90DF90CF90BF9019
:101CF000AF909F908F900895AF92BF92CF92DF9256
:101D0000EF92FF920F931F93CF93DF93EB0180919C
:101D10008502863410F480E086C0EA85FB858281E6
:101D200093816EEE72E00E94B103892BA1F3EA85E4
:101D3000FB85848195816EEE72E00E94F703892B0A
:101D400051F3EA85FB858681978162E27BE00E9400
:101D5000B103892B01F3EA85FB858085918562E2D9
:101D60007BE00E94F703892BB1F25CE0A52EB12C39
:101D700005E010E0C12CD12C7601EA85FB85C80175
:101D8000880F991FE80FF91F808191816EEE72E034
:101D90000E94B103892B09F4BECFEA85FB85EA0DC9
:101DA000FB1D8081918166E678E00E94F703892B14
:101DB00039F0CC0CDD1CEE1CFF1C6894C0F811C07F
:101DC000EA85FB85EA0DFB1D808191816EEE72E054
:101DD0000E94F703892B09F49ECFCC0CDD1CEE1C6E
:101DE000FF1C0E5F1F4F84E0A80EB11C05341105C7
:101DF00021F6EA85FB85E657FF4F808191816EEEE3
:101E000072E00E94B103892B09F485CF80E290E053
:101E100099878887CC82DD82EE82FF8288E090E01D
:101E20009983888381E0DF91CF911F910F91FF907B
:101E3000EF90DF90CF90BF90AF9008951F920F92D8
:101E40000FB60F9211242F933F938F939F93AF93CD
:101E5000BF938091540390915503A0915603B09184
:101E600057033091530323E0230F2D3720F40196BD
:101E7000A11DB11D05C026E8230F0296A11DB11DAD
:101E8000209353038093540390935503A0935603D8
:101E9000B09357038091580390915903A0915A032E
:101EA000B0915B030196A11DB11D809358039093DF
:101EB0005903A0935A03B0935B03BF91AF919F91D5
:101EC0008F913F912F910F900FBE0F901F901895FB
:101ED000789484B5826084BD84B5816084BD85B505
:101EE000826085BD85B5816085BDEEE6F0E08081CC
:101EF00081608083E1E8F0E01082808182608083ED
:101F0000808181608083E0E8F0E08081816080836F
:101F1000E1EBF0E0808184608083E0EBF0E08081A1
:101F200081608083EAE7F0E0808184608083808143
:101F300082608083808181608083808180688083EB
:101F40001092C10008958E3008F08E508770209155
:101F50000C0190E4299F90011124822B80937C0036
:101F600080917A00806480937A0080917A0086FD67
:101F7000FCCF809178002091790090E0922B089519
:101F80001F93CF93DF93182FEB0161E00E9448105D
:101F9000209711F460E004C0CF3FD10539F461E02F
:101FA000812FDF91CF911F910C948110E12FF0E0F0
:101FB000E859FF4FE491E330F9F048F4E130B9F02B
:101FC000E230A1F584B5806284BDC8BD34C0E7307D
:101FD000E9F0E83019F1E43049F580918000806241
:101FE00080938000D0938B00C0938A0024C084B576
:101FF000806884BDC7BD1FC08091800080688093C9
:102000008000D0938900C093880015C08091B000F3
:1020100080688093B000C093B3000DC08091B00081
:1020200080628093B000C093B40005C0C038D10571
:102030000CF0B5CFAFCFDF91CF911F9108958330D2
:1020400081F028F4813099F08230A1F00895873032
:10205000A9F08830B9F08430D1F4809180008F7D70
:1020600003C0809180008F7780938000089584B5AD
:102070008F7702C084B58F7D84BD08958091B000B4
:102080008F7703C08091B0008F7D8093B00008955A
:10209000CF93DF9390E0FC01E458FF4F2491FC01C3
:1020A000E057FF4F8491882349F190E0880F991FF2
:1020B000FC01E854FF4FA591B49182559F4FFC015C
:1020C000C591D4919FB7611108C0F8948C91209567
:1020D00082238C93888182230AC0623051F4F89461
:1020E0008C91322F309583238C938881822B888327
:1020F00004C0F8948C91822B8C939FBFDF91CF9179
:1021000008950F931F93CF93DF931F92CDB7DEB740
:10211000282F30E0F901E859FF4F8491F901E45884
:10212000FF4F1491F901E057FF4F04910023C9F0CC
:10213000882321F069830E941F106981E02FF0E05D
:10214000EE0FFF1FE255FF4FA591B4919FB7F89492
:102150008C91611103C01095812301C0812B8C9358
:102160009FBF0F90DF91CF911F910F910895CF9353
:10217000DF93282F30E0F901E859FF4F8491F901EE
:10218000E458FF4FD491F901E057FF4FC491CC239D
:1021900091F081110E941F10EC2FF0E0EE0FFF1F55
:1021A000EC55FF4FA591B4912C912D2381E090E047
:1021B00021F480E002C080E090E0DF91CF910895AB
:1021C000FC01818D228D90E0805C9F4F821B9109E4
:1021D0008F7399270895FC01918D828D981731F0A6
:1021E000828DE80FF11D858D90E008958FEF9FEFB0
:1021F0000895FC01918D828D981761F0828DDF0129
:10220000A80FB11D5D968C91928D9F5F9F73928FE9
:1022100090E008958FEF9FEF08958DE792E1892B6D
:1022200049F080E090E0892B29F00E947D12811115
:102230000C9400000895FC01848DDF01A80FB11DEE
:10224000A35ABF4F2C91848D90E001968F739927EC
:10225000848FA689B7892C93A089B1898C918064D9
:102260008C93938D848D981306C00288F389E02D9A
:1022700080818F7D80830895CF93DF93EC01888DDB
:102280008823C9F0EA89FB89808185FD05C0A8897A
:10229000B9898C9186FD0FC00FB607FCF5CF808100
:1022A00085FFF2CFA889B9898C9185FFEDCFCE014A
:1022B0000E941B11E7CFDF91CF910895CF92DF925B
:1022C000FF920F931F93CF93DF931F92CDB7DEB78B
:1022D0006C0181E0D60158968C9358975B969C913F
:1022E0005B975C968C915C97981307C05096ED9124
:1022F000FC915197808185FD2EC0F601038D10E081
:102300000F5F1F4F0F731127F02EF601848DF81207
:1023100011C00FB607FCF9CFD6015096ED91FC9194
:102320005197808185FFF1CFC60169830E941B11FF
:102330006981EBCF838DE80FF11DE35AFF4F608376
:10234000D6015B960C935B975296ED91FC91539757
:10235000808180620CC0D6015696ED91FC91579712
:1023600060835096ED91FC915197808180648083C9
:1023700081E090E00F90DF91CF911F910F91FF903E
:10238000DF90CF900895BF92CF92DF92EF92FF92AD
:10239000CF93DF93EC016A017B01B22EE889F989C2
:1023A00082E08083411581EE580761057105A1F037
:1023B00060E079E08DE390E0A70196010E9481162C
:1023C000215031094109510956954795379527956F
:1023D000211580E1380798F0E889F989108260E8D2
:1023E00074E88EE190E0A70196010E9481162150C9
:1023F0003109410951095695479537952795EC853F
:10240000FD853083EE85FF852083188EEC89FD895C
:10241000B082EA89FB89808180618083EA89FB89B7
:10242000808188608083EA89FB89808180688083DD
:10243000EA89FB8980818F7D8083DF91CF91FF9036
:10244000EF90DF90CF90BF9008951F920F920FB63C
:102450000F9211242F938F939F93EF93FF93E0910B
:102460006C03F0916D038081E0917203F09173032E
:1024700082FD12C09081809175038F5F8F732091D0
:102480007603821751F0E0917503F0E0E45AFC4FB7
:10249000958F8093750301C08081FF91EF919F918B
:1024A0008F912F910F900FBE0F901F9018951F9234
:1024B0000F920FB60F9211242F933F934F935F9378
:1024C0006F937F938F939F93AF93BF93EF93FF93FC
:1024D0008CE593E00E941B11FF91EF91BF91AF91AA
:1024E0009F918F917F916F915F914F913F912F912C
:1024F0000F900FBE0F901F9018958CE593E00E94EF
:10250000E01021E0892B09F420E0822F0895109239
:102510005F0310925E0388EE93E0A0E0B0E080934A
:10252000600390936103A0936203B09363038AE313
:1025300092E090935D0380935C0385EC90E0909330
:1025400069038093680384EC90E090936B0380931D
:102550006A0380EC90E090936D0380936C0381ECB0
:1025600090E090936F0380936E0382EC90E09093E1
:1025700071038093700386EC90E0909373038093D3
:1025800072031092750310927603109277031092E3
:1025900078030895CF92DF92EF92FF920F931F93EB
:1025A000CF93DF937C016A01EB0100E010E00C1592
:1025B0001D0571F06991D701ED91FC910190F081B9
:1025C000E02DC7010995892B19F00F5F1F4FEFCF41
:1025D000C801DF91CF911F910F91FF90EF90DF9095
:1025E000CF9008956115710581F0DB010D900020F9
:1025F000E9F7AD0141505109461B570BDC01ED9144
:10260000FC910280F381E02D099480E090E0089530
:102610000C94F212DC01ED91FC910190F081E02D1F
:10262000099466E472E00C94F2120F931F93CF9317
:10263000DF93EC010E94F2128C01CE010E94111373
:10264000800F911FDF91CF911F910F9108958F926D
:102650009F92AF92BF92DF92EF92FF920F931F93E0
:10266000CF93DF93CDB7DEB7A1970FB6F894DEBF57
:102670000FBECDBF7C01F42FD52ECB0119A2223085
:1026800008F42AE08E010F5D1F4F822E912CA12CA1
:10269000B12C6F2F7D2DA50194010E948116F22F80
:1026A000D32ECA01015011096A3014F4E0E301C0CD
:1026B000E7E3E60FD801EC93232B242B252B49F7D6
:1026C000B801C7010E94F212A1960FB6F894DEBFBE
:1026D0000FBECDBFDF91CF911F910F91FF90EF9073
:1026E000DF90BF90AF909F908F900895CF92DF9230
:1026F000EF92FF920F931F93CF93DF93EC016A0148
:102700007B012115310579F4E881F9810190F0818F
:10271000E02D642FDF91CF911F910F91FF90EF90EB
:10272000DF90CF9009942A303105E9F477FF1AC081
:102730006DE20E940A138C0144275527BA014C19F7
:102740005D096E097F092AE0CE010E942713800FE0
:10275000911FDF91CF911F910F91FF90EF90DF902C
:10276000CF9008952AE0B701A601CE01DF91CF9165
:102770001F910F91FF90EF90DF90CF900C94271353
:102780009A01AB01662757FD6095762F0C9476135E
:102790000F931F93CF93DF93EC019A01AB01662750
:1027A00057FD6095762F0E9476138C01CE010E9412
:1027B0001113800F911FDF91CF911F910F910895F9
:1027C0002115310541F4DC01ED91FC910190F0817E
:1027D000E02D642F09940C9427130F931F93CF932C
:1027E000DF93EC019A01AB0160E070E00E94E0131E
:1027F0008C01CE010E941113800F911FDF91CF91A8
:102800001F910F9108954F925F926F927F92AF92B6
:10281000BF92CF92DF92EF92FF920F931F93CF93CD
:10282000DF93CDB7DEB729013A01621B730B840B2E
:10283000950B29893A894B895C892A193B094C09EE
:102840005D09298B3A8B4B8B5C8B9B01AC016989B1
:102850007A898B899C890E947116E418F50806090B
:102860001709A80197010E94A3162A0D3B1D4C1DB4
:102870005D1DCA01B901DF91CF911F910F91FF90AA
:10288000EF90DF90CF90BF90AF907F906F905F9070
:102890004F90089508950E94680F0E944A140E9464
:1028A0008D00CDE0D1E10E945C032097E1F30E940E
:1028B0000D11F9CF5058BB27AA270ED075C166D18C
:1028C00030F06BD120F031F49F3F11F41EF45BC166
:1028D0000EF4E095E7FB51C1E92F77D180F3BA17E9
:1028E000620773078407950718F071F49EF58FC18E
:1028F0000EF4E0950B2EBA2FA02D0B01B90190011B
:102900000C01CA01A0011124FF27591B99F0593F5E
:1029100050F4503E68F11A16F040A22F232F342FA6
:102920004427585FF3CF469537952795A795F040F4
:102930005395C9F77EF41F16BA0B620B730B840B09
:10294000BAF09150A1F0FF0FBB1F661F771F881FC1
:10295000C2F70EC0BA0F621F731F841F48F4879519
:1029600077956795B795F7959E3F08F0B3CF939508
:10297000880F08F09927EE0F979587950895D9D07D
:1029800008F481E008950CD00FC107D140F0FED0CB
:1029900030F021F45F3F19F0F0C0511139C1F3C09C
:1029A00014D198F39923C9F35523B1F3951B550B13
:1029B000BB27AA2762177307840738F09F5F5F4F12
:1029C000220F331F441FAA1FA9F333D00E2E3AF053
:1029D000E0E830D091505040E695001CCAF729D06D
:1029E000FE2F27D0660F771F881FBB1F26173707BC
:1029F0004807AB07B0E809F0BB0B802DBF01FF27EC
:102A000093585F4F2AF09E3F510568F0B6C000C151
:102A10005F3FECF3983EDCF3869577956795B79525
:102A2000F7959F5FC9F7880F911D9695879597F940
:102A30000895E1E0660F771F881FBB1F62177307B9
:102A40008407BA0720F0621B730B840BBA0BEE1FCE
:102A500088F7E095089504D06894B111D9C008951D
:102A6000BCD088F09F5790F0B92F9927B751A0F0AC
:102A7000D1F0660F771F881F991F1AF0BA95C9F712
:102A800012C0B13081F0C3D0B1E00895C0C0672F4B
:102A9000782F8827B85F39F0B93FCCF386957795C2
:102AA0006795B395D9F73EF49095809570956195AB
:102AB0007F4F8F4F9F4F0895E89409C097FB3EF4D6
:102AC00090958095709561957F4F8F4F9F4F99237B
:102AD000A9F0F92F96E9BB279395F69587957795F9
:102AE0006795B795F111F8CFFAF4BB0F11F460FFB9
:102AF0001BC06F5F7F4F8F4F9F4F16C0882311F011
:102B000096E911C0772321F09EE8872F762F05C024
:102B1000662371F096E8862F70E060E02AF09A95BF
:102B2000660F771F881FDAF7880F9695879597F9B4
:102B30000895990F0008550FAA0BE0E8FEEF16164E
:102B40001706E807F907C0F012161306E407F507A1
:102B500098F0621B730B840B950B39F40A2661F015
:102B6000232B242B252B21F408950A2609F4A140B8
:102B7000A6958FEF811D811D089597F99F6780E8C5
:102B800070E060E008959FEF80EC089500240A94BF
:102B90001616170618060906089500240A94121638
:102BA0001306140605060895092E0394000C11F46B
:102BB000882352F0BB0F40F4BF2B11F460FF04C018
:102BC0006F5F7F4F8F4F9F4F089557FD9058440F71
:102BD000551F59F05F3F71F04795880F97FB991F7C
:102BE00061F09F3F79F08795089512161306140639
:102BF000551FF2CF4695F1DF08C0161617061806C6
:102C0000991FF1CF86957105610508940895E894A0
:102C1000BB2766277727CB0197F908950BD0C4CF40
:102C2000B5DF28F0BADF18F0952309F0A6CFABCFB7
:102C30001124EECFCADFA0F3959FD1F3950F50E09A
:102C4000551F629FF001729FBB27F00DB11D639F5E
:102C5000AA27F00DB11DAA1F649F6627B00DA11D04
:102C6000661F829F2227B00DA11D621F739FB00DAA
:102C7000A11D621F839FA00D611D221F749F33271A
:102C8000A00D611D231F849F600D211D822F762FB3
:102C90006A2F11249F5750408AF0E1F088234AF0B0
:102CA000EE0FFF1FBB1F661F771F881F91505040FC
:102CB000A9F79E3F510570F060CFAACF5F3FECF3BC
:102CC000983EDCF3869577956795B795F795E795E8
:102CD0009F5FC1F7FE2B880F911D9695879597F9F9
:102CE0000895DB018F939F930E94C216BF91AF910D
:102CF000A29F800D911DA39F900DB29F900D112456
:102D00000895A1E21A2EAA1BBB1BFD010DC0AA1F2C
:102D1000BB1FEE1FFF1FA217B307E407F50720F044
:102D2000A21BB30BE40BF50B661F771F881F991FBF
:102D30001A9469F760957095809590959B01AC0108
:102D4000BD01CF010895052E97FB1EF400940E944B
:102D5000BA1657FD07D00E94811607FC03D04EF427
:102D60000C94BA1650954095309521953F4F4F4F92
:102D70005F4F089590958095709561957F4F8F4F27
:102D80009F4F08950E940A17A59F900DB49F900D24
:102D9000A49F800D911D112408950F93083090F089
:102DA000982F872F762F652F542F432F322F2227CE
:102DB0000850F4CF220F331F441F551F661F771F83
:102DC000881F991F0A95B2F70F91089597FB10F885
:102DD000169400080F93083098F00850232F342FD2
:102DE000452F562F672F782F892F902DF4CF0594DC
:102DF0009795879577956795579547953795279533
:102E00000A95AAF70F910895EE0FFF1F0590F49110
:102E1000E02D0994A29FB001B39FC001A39F700D44
:102E2000811D1124911DB29F700D811D1124911DD2
:062E30000895F894FFCFA5
:102E3600010000003200010028001B000174656DCE
:102E46007020697320686967686572207468616EAE
:102E56002074656D704D61780054454D5052415453
:102E66005552453D002A4320200046414E205350EE
:102E76004545443D00250066616E2073746F703AC7
:102E86000066616E207370656564203A0046616E67
:102E96002073706565642066756C6C203130302552
:102EA600203A00636F756E74203A0052656D6F7438
:102EB60065207072657373656420627574746F6ED5
:102EC60020636F646520203A00627574746F6E200B
:102ED60069732070726573736564206C6564312054
:102EE6006F666600627574746F6E20697320707207
:102EF6006573736564206C656431206F6E0062755E
:102F060074746F6E206973207072657373656420C4
:102F16006C656432206F666600627574746F6E202D
:102F260069732070726573736564206C6564322002
:102F36006F6E004175746F206D6F6465206F6666F5
:102F4600004175746F206D6F6465206F6E002020E0
:102F560052656D6F746520627574746F6E202063A0
:102F66006F6465203A00000000005E11CA12E0108E
:102F7600F910EB103C110D0A006E616E00696E6669
:082F8600006F7666002E0000CA
:107E0000112484B714BE81FFF0D085E080938100F7
:107E100082E08093C00088E18093C10086E0809377
:107E2000C20080E18093C4008EE0C9D0259A86E02C
:107E300020E33CEF91E0309385002093840096BBD3
:107E4000B09BFECF1D9AA8958150A9F7CC24DD24C4
:107E500088248394B5E0AB2EA1E19A2EF3E0BF2EE7
:107E6000A2D0813461F49FD0082FAFD0023811F036
:107E7000013811F484E001C083E08DD089C08234E0
:107E800011F484E103C0853419F485E0A6D080C0E4
:107E9000853579F488D0E82EFF2485D0082F10E0AE
:107EA000102F00270E291F29000F111F8ED06801E7
:107EB0006FC0863521F484E090D080E0DECF843638
:107EC00009F040C070D06FD0082F6DD080E0C81688
:107ED00080E7D80618F4F601B7BEE895C0E0D1E017
:107EE00062D089930C17E1F7F0E0CF16F0E7DF06D8
:107EF00018F0F601B7BEE89568D007B600FCFDCFD4
:107F0000A601A0E0B1E02C9130E011968C91119780
:107F100090E0982F8827822B932B1296FA010C0160
:107F200087BEE89511244E5F5F4FF1E0A038BF0790
:107F300051F7F601A7BEE89507B600FCFDCF97BE46
:107F4000E89526C08437B1F42ED02DD0F82E2BD052
:107F50003CD0F601EF2C8F010F5F1F4F84911BD097
:107F6000EA94F801C1F70894C11CD11CFA94CF0C13
:107F7000D11C0EC0853739F428D08EE10CD085E9AC
:107F80000AD08FE07ACF813511F488E018D01DD067
:107F900080E101D065CF982F8091C00085FFFCCF94
:107FA0009093C60008958091C00087FFFCCF809118
:107FB000C00084FD01C0A8958091C6000895E0E648
:107FC000F0E098E1908380830895EDDF803219F02E
:107FD00088E0F5DFFFCF84E1DECF1F93182FE3DFCA
:107FE0001150E9F7F2DF1F91089580E0E8DFEE27F6
:047FF000FF270994CA
:027FFE00040479
:0400000300007E007B
:00000001FF
